:020000040800F2
:1000000020080020D5000008712D0008572A00089C
:1000100000000000000000000000000000000000E0
:10002000000000000000000000000000952D000806
:100030000000000000000000732D00082D2E0008B5
:10004000E7000008E7000008852D0008E700000829
:10005000E7000008E7000008E7000008D5060008F0
:10006000E7000008E7000008E902000801030008B3
:10007000E7000008E7000008E7000008ED2E000890
:10008000FD2E00080D2F0008E7000008000000000A
:10009000E7000008E7000008E7000008E7000008A4
:1000A000E7000008E7000008E7000008E700000894
:1000B000C9340008752D0008E7000008E7000008B3
:1000C0000348854600F0B2F800480047193500089B
:1000D000200800200448804704480047FEE7FEE768
:1000E000FEE7FEE7FEE7FEE7E92E0008C100000894
:1000F000F0B51FB40646002082B0054640240191A9
:1001000000901BE0019922460F46304600F07CF833
:10011000049A059B801A994110D31046194622462D
:1001200000F062F8361A8F41019722460120002123
:10013000009F00F059F838184D4100902046641E89
:100140000028DFDC019B00982946324607B0F0BD4D
:10015000D2B201E00270401C491EFBD2704700225F
:10016000F6E710B513460A4604461946FFF7F0FFB6
:10017000204610BD30B505462A460B4610781C783F
:10018000521C5B1C002801D0A042F7D0002C03D0E9
:10019000002802D06D1CEFE7284630BD421C0178D4
:1001A000401C0029FBD1801A704770B50446002915
:1001B00003D000202022012310E0002801D00020DD
:1001C000C043C046C0460DE02546D5408D4205D30C
:1001D0000D469540641B1D46954040191546521E1C
:1001E000002DF1DC214670BD10B5202A04DB01464C
:1001F000203A9140002010BD914020239C1A0346D4
:10020000E3401943904010BD10B5202A04DB084696
:10021000203AD040002110BD0B46D340D0402024CE
:10022000A21A91400843194610BD0000064C012552
:10023000064E05E0E36807CC2B430C3C984710348E
:10024000B442F7D3FFF740FF68370008883700084B
:10025000F0B5FA490878002818D00020F44A03467F
:10026000D0540C785D1CA54210D2D41800256570BE
:100270000E789F1CB74209D2A5700E78DF1CB742DA
:1002800004D2E5701B1D0C78A342E9D3002008704E
:100290001149087011490A78002A17D0104A0346FC
:1002A000D0540C785D1CA54210D2D418002565707E
:1002B0000E789F1CB74209D2A5700E78DF1CB7429A
:1002C00004D2E5701B1D0C78A342E9D3002008700E
:1002D00004490870F0BDC0469900002007010020C5
:1002E000A30000200801002080B5034800F040FA78
:1002F000024800F03DFA80BD540100200C010020AE
:1003000080B5034800F034FA024800F031FA80BDAD
:10031000E40100209C010020F0B583B0BCA002F0F5
:10032000FDFD7D2084002046C83800F0DDFABF487E
:1003300002F092FB0294204600F0D6FABC4CBD4974
:100340002046FFF717FFBC4D6860BC480278BC48E8
:10035000BC4B214602F002FB28786968002920D1B5
:1003600003281ED8B24EB34FB54C401C2870FFF77F
:100370006FFFAE4802F070FB029800F0B5FA30460D
:100380003946FFF7F7FE6860AC48027820463146F0
:10039000AC4B02F0E3FA28786968002901D10428FF
:1003A000E3D3042800D125E1002001902870FFF755
:1003B0004FFFA54802F050FB029800F095FA9C4CC4
:1003C000A2492046FFF7D6FE6860A1492046FFF704
:1003D000D1FEA8609948027899482146994B02F0CD
:1003E000BDFA2878696800292BD1A968002928D18D
:1003F000032826D88E4F964E914C401C2870FFF74C
:1004000027FF914802F028FB029800F06DFA384669
:100410008E49FFF7AFFE686038463146FFF7AAFE07
:10042000A8608648027820463946864B02F096FA44
:1004300028786968002904D1A968002901D1042815
:10044000DBD3042800D1D5E001982870FFF700FF26
:10045000804802F001FB029800F046FA744C7E4995
:100460002046FFF787FE68607C492046FFF782FE42
:10047000A8607248027872482146724B02F06EFA08
:100480002878696800292BD1A968002928D1032878
:1004900026D8674F714E6A4C401C2870FFF7D8FE73
:1004A0006C4802F0D9FA029800F01EFA38466A4900
:1004B000FFF760FE686038463146FFF75BFEA860D4
:1004C0005E480278204639465E4B02F047FA2878AB
:1004D0006968002904D1A968002901D10428DBD367
:1004E000042800D186E001982870FFF7B1FE5CA0D7
:1004F00002F0B2FA029C204600F0F6F94F4802786A
:100500004F4F4B4938464F4B02F028FAFFF7A0FEF9
:1005100056A002F0A1FA204600F0E6F9474E3278E4
:1005200038464349474B02F019FAFFF791FE53480A
:1005300002F092FA204600F0D7F9327838463C496A
:10054000404B02F00BFAFFF783FE4DA002F084FA55
:10055000204600F0C9F9327838463549394B02F067
:10056000FDF9FFF775FE4AA002F076FA204600F08A
:10057000BBF9327838462E490F46324B02F0EEF97D
:10058000FFF766FE45A002F067FA204600F0ACF9DE
:100590004E493846FFF7EEFD686032782848394604
:1005A000284B02F0DBF928786968002920D103285C
:1005B0001ED81F4E454F224C401C2870FFF748FEA6
:1005C0001A4802F049FA029800F08EF9304639468E
:1005D000FFF7D0FD68601948027820463146194B74
:1005E00002F0BCF928786968002901D10428E3D316
:1005F000042806D1364802F091FCFFF729FE03B02B
:10060000F0BD01982870FFF723FE03B0F0BDC0468F
:100610005443502F4950E58D8FE8AEAEE5889DE5F7
:10062000A78BE58C962E2E2E0D0A0000F7360008BB
:10063000340000205A3700081000002098000020E5
:1006400094030020FFFF0000E03600082337000875
:100650003A370008EB3600082E3700084537000807
:1006600041542B434F50533F0D0A000041542B512E
:1006700049434C4F53453D300D0A0000C036000839
:1006800041542B51494143543D310D0A00000000B3
:1006900041542B51494143543F0D0A0041542B51C1
:1006A000494F50454E3D312C302C22544350222C82
:1006B000223132312E34332E35352E323430222C45
:1006C00035323438372C302C310D0A0051370008C0
:1006D0000237000880B50120400300F025F980BDF5
:1006E000EFF3108072B6FEE710B5014624314A7868
:1006F000022A14D1026813680E24A34313601368FE
:100700000124A3431360026C406C1C230340204669
:10071000984050604C70002000220A7010BD0422E6
:10072000C263012000220A7010BDB0B50146243119
:100730004A78022A18D1026813680E24A343136072
:1007400013680125AB431360026C436C1C241C40EE
:100750002B46A340536000240C704D70816B002920
:1007600000D088472046B0BD0421C1630120B0BD40
:10077000F0B585B0016C03910C68066831680425FA
:10078000019129404A424A410490416C1C230B408C
:100790002F469F403946029421404C424C4114431D
:1007A0002FD0009601200227019E314639404D424C
:1007B0004D419F40029C27420246014600D02946F7
:1007C00004980546243500292AD008210E40774296
:1007D0007741DC40210700D53A46002A1ED1009C13
:1007E00022680E218A432260012211469940039B10
:1007F0005960C263002129706A70416B00290CD1D5
:100800000CE03068800602D43068A843306003985A
:1008100047600498016B002900D0884705B0F0BDFF
:10082000009B1968890605D41A680A218A431A6050
:10083000012169700021297003994F60C16A002964
:10084000EBD1EBE7F0B585B0002841D00446054672
:100850002435022068702048206426681F4830181C
:100860001421FFF7A2FC80000090606431681C4BEB
:100870000B40A268E168276960690190A069029055
:10088000E0690390206A04901943394301980143B9
:1008900002980143039801430498014311433160D6
:1008A0000121880382420DD01C20009E06400F20AB
:1008B000B0400C4A1368834313606068B04013680B
:1008C000034313600020E0632870697005B0F0BD39
:1008D000012005B0F0BDC04600000240F8FFFDBF9A
:1008E0000F80FFFFA8000240B0B5044600F000F9F9
:1008F0000546601C02D09E480078041900F0F8F804
:10090000401BA042FAD3B0BD80B501214A039042FA
:1009100006D10448017005200007202100F0D8F816
:1009200080BDC0461C00002080B504490A68024210
:1009300002D00860FFF7E8FF80BDC0461404014004
:10094000F0B58AB0019009910A68002A00D1B7E099
:100950005C48019B834201D0062000E005200B216A
:1009600009075B180A21CB410093052B00D30090A7
:100970000026354634460BE01143F960641C0998A3
:1009800002681046E040B61C2D1D002800D197E0FB
:1009900001210846A0400240F0D002940492059143
:1009A000089503252946B140CA43099934464E6843
:1009B00033462B405F1E012F07920696039410D8F2
:1009C0000F4601998D681540FF68A7402F438F603F
:1009D000F506ED0F029CA5404F6887432F434F60FB
:1009E00008E0032B029C05D12B46019F089D049A29
:1009F000039E22E0019FF8680799084009998D68D5
:100A0000039EB5400543FD60022B089D049A14D156
:100A10001C2028400F218140E3089B00FB1806930F
:100A20001D6A8D43099B196981402943089D0698D9
:100A300001625868032306900340B3403868079961
:100A400008401843386006988003800F059B95D0B6
:100A50004E490868184308600C2028400F21814047
:100A6000032325469D43194FEB598B430099814041
:100A70001943E951144F396809984068C30301D5F7
:100A8000114300E09143089D3960796883030AD5DA
:100A900011437960B968C3020AD49143B960F96817
:100AA00080020BD568E791437960B968C302F4D539
:100AB0001143B960F968800200D55DE791435CE7B6
:100AC0000AB0F0BD001C00500004014008000140C5
:100AD00042690B4693430A401104C918816170476B
:100AE000002A02D018228150704728228150704776
:100AF000054800687047C0461D48007802490A68EA
:100B0000101808607047C0461804002010B5084847
:100B1000016840220A4302600024204600F00AF8DF
:100B2000002801D0012010BD00F026F8204610BD9D
:100B30000020024070B504467D20C0000C4E317884
:100B4000FFF733FB01460B480068FFF72EFB01F06F
:100B500083F80125032C08D8002806D10025E84396
:100B600021462A4600F020F87460284670BDC04631
:100B7000000000200C0000200448016801221143FD
:100B80000160110742680A43426070473410024016
:100B9000002805D41F21084001218140014801603F
:100BA0007047C04600E100E0002805D40322034658
:100BB00093430A4A9A1803E00C220240064BD218CB
:100BC0008007C00E8901C9B28140FF2383401068AD
:100BD000984308431060704714ED00E000E400E023
:100BE000012000027E490A6802430A607047C0463D
:100BF000F0B589B001252F020268EB0219462031B9
:100C0000764C0A4200D197E0039308902907143CE0
:100C100020680840069002D12068084320600494B0
:100C200005916F4C2068384211D12068384320600C
:100C3000FFF75EFF06462068384208D1FFF758FFED
:100C4000801B6428F7D90325284609B0F0BD032688
:100C5000340562484C380790016821400898436881
:100C60001A46224001963604914202940AD18268C3
:100C7000224091421C46079B0DD021463140B14293
:100C800006D008E019463140B1421C46079B02D10C
:100C900019688903D8D451494968314033D0224674
:100CA0003240914202D00278920607D482683240E4
:100CB000914228D00168039A114224D047494A68DA
:100CC0000392EA044B6813434B604B6893434B60B9
:100CD000079B039D2A46B2434A603D4213D0FFF76B
:100CE00007FF0546C64C3D484068800508D4FFF71D
:100CF000FFFE401BA042F6D9019D284609B0F0BD79
:100D000008984468079B21463140B14208D1029AB5
:100D10001440032212051D461B68934323432B6096
:100D20002E4C62680A4362600699002904D1049B34
:100D30001968059A914319600368D9070DD199077D
:100D400013D4590719D4190720D43B4227D1590687
:100D50002ED40025190636D476E721680322914364
:100D6000C2680A4322609907EBD521680C2291439F
:100D700002690A4322605907E5D5032189022268E6
:100D80008A434169114321601907DED50321090314
:100D900022688A438169114321603B42D7D00321F5
:100DA000090422688A43C169114321605906D0D5DC
:100DB0000121890622688A43416A11432160002586
:100DC000190600D440E703218A0421689143006A90
:100DD00008432060284609B0F0BDC0464C100240D0
:100DE00000700040F0B583B00290002846D00E4657
:100DF00082480068012101910840B04216D27F4923
:100E000008680125A843304308607D4CFFF770FE59
:100E100007467A4800682840B04207D0FFF768FECE
:100E2000C01BA042F5D9032003B0F0BD02980068B2
:100E30008107814D06D52968F0229143029A926874
:100E40000A432A60C0071CD16C480068012738405B
:100E5000B04225D969490868B8430860684CFFF773
:100E600047FE054665480068C00719D0FFF740FEF9
:100E7000401BA042F6D9032003B0F0BD012003B00F
:100E8000F0BD0298426829460C39012A32D0032A63
:100E900035D0022A39D109688903019833D538E061
:100EA000029800684107644C07D5072109022268AF
:100EB0008A430299C96811432160000708D50720B9
:100EC000C0022168814302980069C0000843206085
:100ED00021680807820F73487A44127952009744B8
:100EE00001617F6838042146083909680904490FFF
:100EF000884075E009684907019804D509E0096848
:100F00008901019805D403B0F0BD096889050198ED
:100F1000F9D5296803200190814311432960FFF727
:100F2000E7FD074602984068354C032811D0022897
:100F30001DD0012829D128680C210140042900D1A5
:100F400082E7FFF7D5FDC01BA042F4D9019803B09A
:100F5000F0BD28680C2101400C2900D174E7FFF78F
:100F6000C7FDC01BA042F4D9019803B0F0BD2868AA
:100F70000C210140082900D166E7FFF7B9FDC01B2D
:100F8000A042F4D9019803B0F0BD28680007800F93
:100F900000D159E7FFF7ACFDC01BA042F5D901987D
:100FA00003B0F0BD20460C380068C00612D53F489B
:100FB00016E08A02120F3C4B9A5C0902890F491C09
:100FC0002368DB0309D420460C380068C00603D42C
:100FD000374802E0364803E034485043FFF7E5F86D
:100FE00021680906090F074A515CC8401149086089
:100FF00005480068FFF79EFD03B0F0BD00200240E9
:10100000881300008E36000804000020094800689C
:10101000094909684905490F084A515CC8407047A9
:1010200004480068044909688904490F034A515C6F
:10103000C84070470C0000200C1002409E3600088B
:1010400010B5834AD1680807830F16487B441B7983
:101050005B009F440108070D01200004516809044A
:10106000490F884010BD1068C00613D50F4810BD49
:101070008B021B0F0C4CE35C0902890F491CD468DE
:10108000E40303D41068C00606D409485843FFF7A8
:101090008CF810BD064810BD04485843FFF785F88A
:1010A00010BDC04600127A00A636000800093D00B7
:1010B0000024F400F0B589B0002856D0644EF168E1
:1010C0000C220A400692012105910904F768049157
:1010D0000F4007900078C00710D00698082806D067
:1010E00006980C2800D0D5E0002F00D1D2E030685F
:1010F000800303D507984068002851D007980078EE
:10110000800735D407980078C0064CD4079800783B
:10111000000766D407990878400700D59AE0087858
:10112000800600D521E10798846A002C1AD0069821
:101130000C2800D06DE1012C32D0F068049A0240F6
:10114000079BD96A8A422BD10F21890401401A6B6F
:10115000914225D1032189050840596B88420598A1
:1011600000D059E2002009B0F0BD012009B0F0BD67
:10117000079BD868810604D531682022114331606D
:1011800090430699042906D006990C2900D0ACE0BA
:10119000002F00D0A9E03168490739D5002837D1A0
:1011A000059809B0F0BD0698002800D1B3E030687A
:1011B0000799C969002900D107E101210A021043FA
:1011C00030604C02FFF794FC05463068204200D0A6
:1011D0000EE1FFF78DFC401B0228F6D9032009B071
:1011E000F0BD306D07994969002900D1DCE001218B
:1011F00008433065FFF77CFC0546306D800789D4D5
:10120000FFF776FC401B0228F7D9032009B0F0BD98
:101210001F21090272688A4319690902114371602A
:1012200031680922914301433160F1680807820F58
:10123000FA4852007A4492885200974403002001F1
:10124000DE01260170680004410F04988840D4E153
:101250000010024001221107B06B0840029002D139
:10126000B06B0843B063019103921402F24F3868E7
:10127000C00525D4386820433860FFF739FC05469F
:10128000386820421CD1FFF733FC411B032064293E
:10129000F6D9C1E10798406805994C040499884241
:1012A00009D005210904884200D0C9E005988004CE
:1012B0003168014331603068049908433060CFE001
:1012C00007988068002800D122E1052109028842A0
:1012D000039A00D133E1A04200D134E1306DA04344
:1012E00030659102306D88432FE13168002800D1CC
:1012F000DDE00922914301433160FFF7F9FB054628
:101300003068400700D5F9E0FFF7F2FB411B0320EE
:101310000229F5D980E130688005079B03D5D8699B
:10132000002800D13CE70720400371688143586AD8
:1013300001437160FF21090672688A43196A090630
:1013400089187160400B04998140F0680006000F15
:10135000B64A105CC140B6480160B6480068FFF765
:10136000E9FB002800D057E1D0E6B0680799896909
:10137000002900D1ACE001210843B060706B084344
:1013800070634803AE490A6802430A60FFF7B0FB86
:101390000546B068800700D5C5E6FFF7A9FB411BED
:1013A00003200229F5D937E1012188433065FFF791
:1013B0009FFB0546306D800700D4ABE6FFF798FB36
:1013C000411B03200229F5D926E101210A0290439D
:1013D00030604C02FFF78CFB05463068204200D19C
:1013E00094E6FFF785FB411B03200229F5D913E1A1
:1013F0000720400371688143079A506A0843706070
:10140000FF20000671688143106A00064018706072
:101410007CE601273806316881433160FFF768FBBD
:101420000546022C00D0AAE07F063068384200D181
:10143000C1E0FFF75DFB411B03200229F5D9EBE07A
:101440003168049A914331603168114008910899DC
:101450000599890432688A433260002800D19CE0F3
:10146000FFF746FB05463068204200D046E6FFF70E
:101470003FFB401B6428F6D9032009B0F0BD30685B
:10148000C00600D487E06748B7E08A02120F644BB9
:101490009A5C0902890F491CF368049C234200D01E
:1014A000A8E03068C00600D5A3E05F48A2E00120B4
:1014B00081433160FFF71CFB05463068400700D4CC
:1014C00020E6FFF715FB411B03200229F5D9A3E015
:1014D00001218843B060480359490A6882430A6081
:1014E000FFF706FB0546B068800700D41BE6FFF750
:1014F000FFFA411B03200229F5D98DE01F200002CD
:101500007168814307980069000208437060F9E53B
:10151000306DA0433065039A9002316D814331658F
:101520005402464FFFF7E4FA0546306D20421CD0C6
:10153000FFF7DEFA411B0320B942F6D96CE09002B6
:10154000316D01433165306D2043306554023B4FAE
:10155000FFF7CEFA0546306D204206D1FFF7C8FAF4
:10156000411B0320B942F6D956E00298002807999A
:1015700000D0D4E5B06B019A9043B063CFE57C0610
:101580003068204200D1EDE5FFF7B2FA411B03209D
:101590000229F5D940E024482FE0FFF7A9FA0546D3
:1015A0003068204200D1A9E5FFF7A2FA411B0320D1
:1015B0006429F5D930E0FD200004F1688143079BE0
:1015C0002C330DCB084310431843F0601D48401CDA
:1015D000316801433160FFF78BFA044630683842C6
:1015E00000D0BFE5FFF784FA011B03200229F5D9DB
:1015F00012E00C485043FEF7D8FDF1680906090FC8
:101600000A4A515CC8400A4908600A480068FFF766
:1016100091FA002800D175E509B0F0BD00127A00FA
:10162000A636000800093D000024F4008E360008AC
:101630000C0000200400002000700040881300000F
:1016400020000140FFFFFF00890000684018006D86
:10165000704789000068401802657047F0B585B092
:1016600005462020285C012802D1022005B0F0BDEB
:10167000019103922C462034022060702868CA2110
:1016800041625321416201210491217081687D22D0
:10169000D60032461832029211420CD0FFF728FAD7
:1016A00007462868C168490705D5FFF721FAC01B1E
:1016B000B042F6D915E037490A46803283681340B4
:1016C0008360C268D2B20A43C260FFF711FA0746CC
:1016D0002968C868400708D4FFF70AFAC01BB0425F
:1016E000F6D92968032528461BE0019848618868D7
:1016F0000722904388608868039A10438860049D9D
:1017000028050B4A136803431360936803439360EF
:10171000A8038A6802438A608868029A1043886036
:101720000020FF224A6200212170657005B0F0BDE3
:101730000004014010B586B0044601A9002200F063
:1017400055F8002806D169460022204600F026F808
:1017500001F022FB052000072021FFF7B9F906B0B0
:1017600010BD000010B504460068C06840050AD5E9
:101770002046FFF7DFFF2068C168064A0A430121BF
:1017800089028A43C26001200105034A11602121B8
:10179000605410BD7FFBFFFF14040140F0B50068EA
:1017A0004368180CC8703F261E408E701C0A1F2507
:1017B00025404D701F047F0F0F70002A01D00020BC
:1017C000F0BD0F22134037090A267743FB188B70B0
:1017D00014402B0973431B194B700240C0B200091F
:1017E00070438018C8700020F0BD0000F0B581B0D3
:1017F0000068836A4B600369164C1C408C60046867
:101800007F2327461F408F70200C40250540CD7058
:10181000260A33404B703F2505400D70002A02D048
:10182000002001B0F0BD0F22009214403F090A22AF
:1018300057433C198C70009C26401B0953439B194D
:101840004B7020402B09534318180870002001B03A
:10185000F0BDC046FF7F0000F0B581B00124002834
:101860002CD00546074620377878002804D1002080
:101870003870284600F070F8022078702868CA2175
:10188000416253214162C1684906009419D4002184
:10189000C943C1607D20C400FFF72AF906462868C5
:1018A000C16849060DD4FFF723F9801BA042F6D981
:1018B0002868FF21416204207870009C204601B016
:1018C000F0BD8168234A0A40826069682A690A4338
:1018D000A969114382680A438260E9680161A968C5
:1018E000090402690A430261C16880229143C16010
:1018F000C16C03229143C164E9696A690A43C16CFE
:101900001143C164816889061CD4C168A022914337
:10191000C1607D20C400FFF7EBF806462868C16867
:1019200089060FD4FFF7E4F8801BA042F6D9286897
:10193000FF2141620020387004207870009C20460E
:1019400001B0F0BDFF2141620120787000242046E3
:1019500001B0F0BDBFFF8FFF10B500680949884294
:1019600000D010BD0120800407490A6802430A60C4
:101970000224002120460A46FFF716F92046FFF709
:1019800007F910BD0028004050100240F0B585B0A6
:1019900004462020205C012803D10225284605B0FA
:1019A000F0BD264620360220707001200190307074
:1019B000002A049606D0C87800044A781202161845
:1019C0008F783CE04878C20603D5EF2210400A30F9
:1019D0004870CA7800270A2A0FD30A3AD3B2CD2515
:1019E0005D43EB0A0A255D43521B1B011033134371
:1019F000DAB20A2806D23B460EE03B461343DAB27F
:101A00000A28F8D30A38C3B2CD255D43EB0A0A256C
:101A10005D43401B1B01103312040343D8B206027E
:101A200088780A2809D30A38C3B2CD255D43EB0A6A
:101A30000A255D43401B1F011037164307430397D8
:101A40002068CA2242625322426209780291C16828
:101A5000490611D40021C943C1607D20C700FFF7AA
:101A600047F805462068C168490605D4FFF740F8E5
:101A7000401BB842F6D922E00399C9B20E4302993D
:101A80004903C02296430E434660C16880229143B9
:101A9000C16081680025890615D4C168A0229143E0
:101AA000C1607D20C700FFF723F806462068C168A3
:101AB00089060AD4FFF71CF8801BB842F6D92068C3
:101AC0000125042202E0019A00E0019AFF2141620F
:101AD0000020049908704A70284605B0F0BD000047
:101AE000F0B583B004462020205C012803D10225F4
:101AF000284603B0F0BD2746203702207870012029
:101B0000009038702068836840251D40002A0191AC
:101B1000029704D0002D15D10025CD7014E0002DC2
:101B200001D10022CA700A7800260A2A15D30A3A7F
:101B3000D3B2CD255D43EB0A0A255D43521B1B0141
:101B400010330BE0CA7815040A7812044B781B0294
:101B50009A188B78D7182F432CE033461343DAB208
:101B600013044A780A2A0DD30A3AD5B23146CD2653
:101B70006E43F50A0A266E43921B0E4601992D010B
:101B8000103500E035461543EAB212021A438B784D
:101B90000A2B09D30A3BDEB2CD257543EE0A0A258E
:101BA00075435B1B360110361E43F3B21A43C978E6
:101BB0000F041743CA21416253214162C16849069B
:101BC00011D40021C943C1607D20C500FEF790FFFC
:101BD00006462068C168490605D4FEF789FF801BC8
:101BE000A842F6D928E01B490F400760009B9904E2
:101BF00082688A438260019AD16812690A438168C7
:101C000011438160C16880229143C16081680025D1
:101C1000890616D4C168A0229143C1607D20C70007
:101C2000FEF766FF06462068C168890608D4FEF7FD
:101C30005FFF801BB842F6D920680125042300E02D
:101C4000009BFF2141620020029908704B702846DA
:101C500003B0F0BD7F7F7F00401E010E01D0012048
:101C600070470749074A5060074803680B40032143
:101C700089075918016000209060072111607047A2
:101C8000FFFFFF0010E000E020ED00E010B538227B
:101C9000825C012A01D1022010BD024638320223A3
:101CA0005370006843687024A3430C681C43836826
:101CB0004460634CA04207DC0124A407A04209D081
:101CC000624CA04206D00AE05E4CA04202D05E4CBC
:101CD000A04204D18024A3434968194381600020B5
:101CE00010700121517010BDB0B5002819D0044604
:101CF000054638356878002804D100202870204631
:101D000000F04EF802206870206801684C4B984241
:101D100009DC0122920790420BD04C4A904208D035
:101D200018E00120B0BD474A904202D0464A904296
:101D300010D170229143A2680A4321463A31984259
:101D40000DDC01239B0798420FD0404B98420CD0EA
:101D500013460FE00A4621463A319842F1DD394BED
:101D6000984202D0384B984217D103231B029A4362
:101D7000236913438022934362691A430260E26835
:101D8000C26262688262012242610A710A704A700C
:101D90008A70CA706A700020B0BD1346EAE7C04678
:101DA00010B5016801208207914208D00C48814299
:101DB00007D02648814212D11024022003E00F24CC
:101DC00001E01124102007490A6802430A6000213B
:101DD00020460A46FEF7E8FE2046FEF7D9FE10BD73
:101DE00000100040381002403921415C012912D115
:101DF0000146393102220A700068C26801210A4393
:101E0000C2600F4A904208DC8A0790420BD00F4A0A
:101E1000904208D00EE0012070470A4A904202D05A
:101E2000094A904206D1826807231340062B01D14C
:101E30000020704702680A43026000207047C046D5
:101E4000FF07014000140140000801400004004069
:101E500010B50268D36801218B43D360136A074C25
:101E6000234203D039228154002010BD13688B43D4
:101E7000136039228154002010BDC04611110000AA
:101E8000F0B53822825C012A01D10220F0BD024661
:101E9000383202235370504E3346773B0468A068B3
:101EA0001840A0600D6800234F2D1EDC1F2D35DD6E
:101EB000202D37D0302D35D0402D00D086E0206A3F
:101EC000256A0126B5432562A569F026B543CE688B
:101ED00036012E43A6610A25A843496801432162C1
:101EE000A06847210143302069E06F2D26DD0120E5
:101EF0004703BD4240D00003854218461AD0702DDA
:101F000064D1A06830404D688E68C9682E430902CC
:101F100031430143A160A068772139E0002D01D051
:101F2000102D53D1A0687021884305430720284312
:101F3000A0601846137001215170F0BD502D29D0BA
:101F4000602D43D11020C043256A054025620F252E
:101F50002D03A669AE43CD682D033543266AA561DE
:101F6000A025AE434968090131432162A168672574
:101F70000D430540A56024E0A56835404E688F6894
:101F8000C9683743090239432943A1608003A16826
:101F9000014315E0206A256A0126B5432562A5693B
:101FA000F026B543CE6836012E43A6610A25A84324
:101FB000496801432162A0685721014320208143E1
:101FC000A1601846137001215170F0BD01201370FB
:101FD00001215170F0BDC046FF00FFFF7047B0B552
:101FE00004464020C54320680169890717D5C168A8
:101FF000890714D529463E31016101212176806986
:10200000800703D02046FFF7E9FF05E0204600F0F7
:1020100071F8204600F06FF80020207620680169F2
:10202000490718D5C168490715D529463C310161D2
:102030000221217680698005800F03D02046FFF7BA
:10204000CDFF05E0204600F055F8204600F053F89B
:102050000020207620680169090717D5C1680907A3
:1020600014D529463831016104212176C0698007E1
:1020700003D02046FFF7B2FF05E0204600F03AF813
:10208000204600F038F80020207620680169C90653
:1020900018D5C168C90615D5294630310161082116
:1020A0002176C0698005800F03D02046FFF796FF98
:1020B00005E0204600F01EF8204600F01CF8002045
:1020C000207620680169C90709D0C168C90706D010
:1020D00029463F310161204600F00EF82068016971
:1020E000490606D5C168490603D50561204600F0BA
:1020F00039F8B0BD7047704780B51549884206D0A1
:102100001449884210D0144988421AD080BD052055
:10211000000720210022FEF7E3FC11480121017095
:102120000B48FFF795FE80BD052000072021002207
:10213000FEF7D6FC0948012101700648FFF788FE2A
:1021400080BD052000072021FEF7C2FC80BDC046EF
:10215000D4020020140300205403002008010020B2
:10216000990000207047704770477047F0B589B0FC
:102170000368DE691A682021089205910A405142DD
:1021800051410127FD022C462F3407963440203C54
:10219000661EB4410C439E6860D002A98CC10690B3
:1021A0000246583201950F35079F2F42089807D0F5
:1021B000E3490140012334461C40611800D097E0F8
:1021C0001023014619404C424C413D4639461940C6
:1021D0004F424F410698016E01290498014643D1B0
:1021E00039460029014642D0002943D02F46012319
:1021F00099050E4074427441E9020146039A00D5E4
:1022000021460029069800D1F0E08021089A11406B
:102210004C424C413906049900D52146002900D191
:1022200082E14025089929404C424C41790600D56D
:102230000494049900290FD1EFF3108183F31088DF
:1022400002681368AB43136081F310880021816634
:102250000599816700F0FEFB09B0F0BD416E0029D1
:10226000FAD0884709B0F0BD00290146BCD121460B
:102270000029BBD1039803628068400600D5BBE00B
:10228000548810885288002A0699E5D0A042E3D0ED
:102290000894EFF31084012282F3108809256D0160
:1022A0000E683768AF43376084F31088EFF310840B
:1022B00082F310880D68AE689643AE6084F3108890
:1022C000059CCC6700244C660C66EFF3108482F307
:1022D00010880A6815689D43156084F31088089A71
:1022E000801A82B208461146FFF73DFF09B0F0BDE3
:1022F000190201404E424E41F9070498014600D0B0
:1023000031460029039D03D12B62916A19439162E2
:1023100066426641B907014600D53146002905D11C
:1023200002212962916A04260E4396626642664142
:102330007907014600D53146002905D104212962DB
:10234000916A02260E43966202990C4366426641E8
:102350003907044600D53446002C04D108212962EF
:10236000946A0C4394629906089E0E40744274412C
:1023700001990F42069E0CD020463C4600280BD106
:102380002962916A059801439162916A002907D1F7
:1023900062E73C460028F3D0916A002900D15BE750
:1023A00017460598214601400298444244410029BD
:1023B000049800D0204600283C4608D1716E0029C0
:1023C00005D030461C46884723463C463568A16AFE
:1023D00028220A40A9684020014089185CD1304673
:1023E000FFF7C3FE0020A06209B0F0BD190511621D
:1023F000FFF7BAFE09B0F0BD1746069E306F0168C0
:102400004A6894B2002C00D126E73888844200D371
:1024100022E73C467A803A460968890634D4EFF3CD
:102420001081012080F31088474A203234682568E3
:102430001540256081F31088EFF3108180F3108838
:10244000326894688443946081F31088EFF31081BC
:1024500080F31088326894684025AC43946081F31F
:1024600010880599F16700213166EFF3108180F340
:102470001088306802689A43026081F31088306FD8
:10248000FEF732F93A4638885188401A81B2304610
:10249000FFF769FE09B0F0BDEFF3108183F31088F8
:1024A000092252011F4633681C6894431C6081F363
:1024B0001088EFF3108187F31088326893683D46E7
:1024C000BB43936081F31088316E01290AD1EFF389
:1024D000108185F31088326813681024A3431360B9
:1024E00081F310880599F1670021316671663168C2
:1024F000896849061FD5EFF3108185F3108832688B
:1025000093688343936081F31088306F002812D062
:102510000C498163FEF709F9002800D19CE6306F71
:10252000816B884709B0F0BD816E002900D193E628
:10253000884709B0F0BD3046FFF717FE09B0F0BD7F
:10254000200100040F300008DFFEFFFFF0B583B06C
:10255000002841D0044607467437806F002804D114
:1025600000203870204600F057F82420A06720682B
:1025700001680125A9430160204600F0F5FD01280E
:1025800027D0606A002802D0204600F0D7FC09203E
:10259000C00221684A6882434A6088682A229043C0
:1025A000886008680126304308600025FD60FEF75A
:1025B0009FFA034620680168090713D51548009063
:1025C000710500222046029300F0E2FE002807D0A9
:1025D0000325284603B0F0BD0125284603B0F0BD11
:1025E0002068029B006840070CD50A480090B1059E
:1025F0000022204600F0CCFE002803D00325284608
:1026000003B0F0BD2020A067E0673D702566284636
:1026100003B0F0BDFFFFFF01F0B589B0044600260E
:10262000089607960696059604960068C54988425E
:1026300049D0C049884200D09BE0012080044E4927
:10264000CA680243CA600868042210430860086828
:102650001040039006200890032007900696022160
:10266000059104900398484804A9FEF769F9474D7D
:10267000802105274248143081C52E606E6002918A
:10268000A960EE602E616E61AE61083D2846FEF7DE
:10269000D9F8002801D0FEF723F8AC6225673C4D3D
:1026A0001020374982C528606E600298A860EE60ED
:1026B0002E616E61AE61083D2846FEF7C3F81D2607
:1026C00000284AD14BE00194012041042A4AD368F2
:1026D0000B43D360116801431160116801400391FD
:1026E00004240894032007900696022005900C20ED
:1026F000049003980520000704A9FEF721F91F4D57
:1027000080211F4F38463C30286002946C60AE60D8
:10271000EE60009129616E61AE61EE612E62284625
:10272000FEF790F8002801D0FDF7DAFF019CAC62BB
:102730002567144D10202E6228372F60029969609A
:10274000A860EE60009828616E61AE61EE61284677
:10275000FEF778F81C26002801D0FDF7C1FFAC6217
:10276000E566002130460A46FEF71EFA3046FEF7BF
:102770000FFA09B0F0BDC0462C1002409C010020A9
:102780001C000240E4010020000800500C01002061
:1027900054010020F0B584B0C36F0227202B11D163
:1027A0000123002918D0002A16D0012425038368AC
:1027B0000395AB420AD1CB0708D00369002B05D1A2
:1027C000234609E03B46184604B0F0BD054658359F
:1027D0002B7F012B3B4602D1184604B0F0BD0023ED
:1027E00003662C770768E54EB74213D07E68360241
:1027F00010D5EFF31086029684F31088A606019692
:10280000066800963768019E3743009E3760029E37
:1028100086F310886A802A804165436681680029B2
:102820000AD022079142039F0CD0B9420FD101690F
:10283000002905D186490DE001690029039F08D1CF
:10284000FF2107E00169002903D03F2102E0AB80AE
:1028500001E07F21A980AB622221C167EFF31081E3
:1028600084F31088026896682643966081F3108886
:102870008168B94202D10169002911D00A492B7738
:102880004166EFF3108184F3108809225201006839
:1028900004681443046081F31088184604B0F0BD46
:1028A0000049ECE725300008C5300008B0B5044603
:1028B0000068B249884203D0224988421ED0B0BD88
:1028C000F0480068002141621B4D2978002905D19C
:1028D0000121C9430161EB48FFF786FA17490878DF
:1028E0002A78174B98542878401C2870A248012257
:1028F000FFF750FF206813498842E0D11248006872
:1029000000214162114C2178002905D10121C943E0
:102910000161F548FFF768FA0D49087822780D4BF8
:1029200098542078401C20700B480122FFF732FF9A
:10293000B0BDC04600480040980000209A0000202A
:102940003400002000440040140300200701002050
:1029500009010020A300002094030020F0B587B0F7
:1029600017460646826F0220202A19D10125002928
:1029700013D0002F11D001252C03B268A24204D13C
:10298000CA0702D03269002A07D00695039434465C
:1029900074342278012A054606D1284607B0F0BDD6
:1029A0000546284607B0F0BD0491059320463446FD
:1029B00050340025C5600290069901702120B0674F
:1029C000FEF796F8069067802780B06803998842E2
:1029D00002D13069002802D0049F049500E000274E
:1029E0000599029805700CE0049A1088184908406F
:1029F00031688862921C04922F4605996088401EB7
:102A000060806088002810D0009180210025304629
:102A10002A46069B00F0BCFC002810D1002FE3D012
:102A20003878316888627F1CE7E7009140210025F3
:102A300030462A46069B00F0ABFC002803D0032555
:102A4000284607B0F0BD2020B067284607B0F0BD8B
:102A5000FF0100007047FEE710B50446FDF79EFB3E
:102A600082B2C748024B2146FFF778FF10BDC0462F
:102A7000FFFF0000B0B582B00E480168012211438B
:102A8000016000681040019001980A24002520464A
:102A900029462A46FEF788F82046FEF779F80B24E7
:102AA000204629462A46FEF77FF82046FEF770F8B2
:102AB00002B0B0BD30100240F0B587B000240694DB
:102AC00005941F4801680422114301600168114008
:102AD0000191019901688022114301600168114050
:102AE000019101990168012529430160006828408E
:102AF00001900198052000070090202631462246CB
:102B0000FDF7EEFF04942120000403906803029077
:102B10000C4802AF3946FDF713FF05940494039562
:102B2000029600983946FDF70BFF072528462146F7
:102B30002246FEF739F82846FEF72AF807B0F0BD1E
:102B40002C1002400008005010B58D480021016291
:102B500041620C22094BE124640218C0016041600B
:102B60008160C26001610838FFF7F0FC002801D0E5
:102B7000FDF7B6FD10BDC0462C0200200048004005
:102B800010B586B082480021FF227F23234C0460C9
:102B900041608360C260016141618161C1610391F3
:102BA000029101910091FEF757FE002801D0FDF738
:102BB00097FD774800242146FEF746FDC00722D145
:102BC00001A98C700C800594049471480122FEF7D1
:102BD00087FF002801D0FDF783FD114800906C4865
:102BE00069460122FEF7D2FE002801D0FDF778FDEC
:102BF00067480C490022FEF731FD002801D0FDF79F
:102C00006FFD06B010BD624800210422FEF726FDCC
:102C10000028F6D0FDF764FD06B010BD0028004086
:102C200001010100FF070000B0B586B0B2480021E5
:102C3000154A404B0124A507056043608160C260CE
:102C40000161416105910491039101910091FFF7A8
:102C50004BF8002801D0FDF743FD20030290A64861
:102C600002A9FFF70DF9002801D0FDF739FDA248B0
:102C70006946FFF70BF8002801D0FDF731FD06B0DB
:102C8000B0BDC046D4020020B70B000010B586B01E
:102C90009D4800213122274B144C04604360816021
:102CA000C26001614161059104910391019100911C
:102CB000FFF71AF8002801D0FDF712FD01200003EC
:102CC0000290914802A9FFF7DBF8002801D0FDF738
:102CD00007FD8D486946FEF7D9FF002801D0FDF7B2
:102CE000FFFC06B010BDC0461403002000040040E5
:102CF00010B582B08848802141610D4900220D4BFA
:102D00000D4C046043608260C16001920092FEF746
:102D1000EBFF002801D0FDF7E3FC7F486946FEF792
:102D2000B5FF002801D0FDF7DBFC02B010BDC046A6
:102D30000F2700005F0900000010004010B57D481B
:102D400000210C22094B01624162E124640218C097
:102D5000016041608160C260016141610838FFF734
:102D6000F5FB002801D0FDF7BBFC10BD004400407E
:102D7000FEE7704780B50248FFF7F8F980BDC0460E
:102D80002C02002080B50248FEF7ECFC80BDC04656
:102D9000B002002070470000F0B500202249214A0F
:102DA0001F4B174F174D184E04E01C4C04191A3CCA
:102DB0002478401C012818D9032818D9142819D9B7
:102DC00015283C46F4D017282C46F1D33446EFD0D2
:102DD00019280E4CECD30E4CEAD01D28E5D91F283B
:102DE0000BD80D4C04191E3CE2E70C18E0E7141850
:102DF000A41EDDE7C418241FDAE706480078F0BDFA
:102E0000330000209D000020320000203000002010
:102E10009E000020310000202E0000209F00002096
:102E20001D0000209B0000200800002080B5FDF759
:102E300063FE80BD70B59EB010AC201D2421FDF74F
:102E40008EF901A82821FDF78AF924480168244D4C
:102E500029400126F20289180160FDF7C1FE2148D0
:102E6000016829400160B0051D9000251C951B9547
:102E700002201A901020149013963002129006200F
:102E800010902046FEF716F9002803D0EFF31080CB
:102E900072B6FEE70F950E950D9503200C900F204E
:102EA0000B900BA801242146FDF79CFF002803D0BE
:102EB000EFF3108072B6FEE70695082005902620F5
:102EC00001902004029001A8FDF792FE002803D093
:102ED000EFF3108072B6FEE71EB070BD00700040C8
:102EE000FFE7FFFF501002407047000080B5024826
:102EF000FFF775F880BDC046D402002080B50248B7
:102F0000FFF76DF880BDC0461403002080B502486D
:102F1000FFF765F880BDC0465403002010B5044695
:102F2000FDF73CF982B20348034B2146FFF716FD3B
:102F300010BDC04694030020FFFF0000B0B5416AF9
:102F4000CA070CD18A0714D44A071CD40A0724D410
:102F5000CA062CD48A0634D44A063CD44CE001225A
:102F6000520403685C689443826A22435A608A0769
:102F7000EAD50122120403685C689443C26A2243C2
:102F80005A604A07E2D50122920403685C689443C0
:102F9000026B22435A600A07DAD50122D203036882
:102FA0005C689443426B22435A60CA06D2D5012220
:102FB000120303689C689443826B22439A608A06DA
:102FC000CAD50122520303689C689443C26B224312
:102FD0009A604A0610D501221305026854689C4382
:102FE000056C2C4354609D4206D103235B05546855
:102FF0009C43436C23435360090607D50121C90450
:10300000026853688B43806C18435060B0BD80B534
:10301000806A0146523100220A8152214252FFF752
:10302000A4F880BD70B50268014658318B88C46F22
:10303000222C0CD1526A1340426D13804B885B1EC8
:103040004B80921C42654A88002A05D070BD906969
:1030500008210143916170BDEFF31083012282F3D7
:1030600010880924640105682E68A6432E6083F346
:103070001088EFF3108382F310880468A5689543E5
:10308000A56083F310882023C36700234366046E82
:10309000012C14D10366EFF3108382F310880468C7
:1030A000256810229543256083F310880368DC6946
:1030B000E40600D51A620988FFF755F870BDFFF7DE
:1030C000F5FB70BD70B50268014658318B88C46F3E
:1030D000222C0DD1526A1A40436D1A704A88521E32
:1030E0004A80426D521C42654A88002A05D070BD54
:1030F000906908210143916170BDEFF310830122B3
:1031000082F310880924640105682E68A6432E60A6
:1031100083F31088EFF3108382F310880468A568A6
:103120009543A56083F310882023C367002343667B
:10313000046E012C14D10366EFF3108382F3108820
:103140000468256810229543256083F3108803687E
:10315000DC69E40600D51A620988FFF704F870BD3F
:10316000FFF7A4FB70BD0000F0B581B00446016814
:103170000868754A0240A0682369034360691843E0
:103180001043E26910430860032630034B68834311
:10319000E06818434860A5696C4B994202D0206AE8
:1031A000284300E028460B252D028F68AF430743D4
:1031B0008F606748814214DD0027664881421FD036
:1031C000654881421CD06548814243D16548C06C46
:1031D0008007000F65A52F580125E803994213D1F8
:1031E0003DE05F48814205D0994233D15D48C06CD3
:1031F000000A01E05B48C06C0C2505405A4847595D
:103200000125E80399422AD0824211D1082F00D922
:1032100094E0C0467F443F797F00BF44043D478F20
:103220004D8F8F8F7600FDF7F1FE002848D06CE0BF
:10323000082F00D982E0C0467F443F797F00BF4419
:103240000430417D477D7D7D7200FDF7DFFE002863
:1032500069D141E010270125E8039942D4D1082F14
:103260006CD8C0467F443F797F00BF44046709673C
:103270000F6767673800FDF7C9FE00282FD109E006
:1032800038480068C00629D53D4828E0FDF7D8FE3B
:10329000002824D1002551E0FDF7C2FE002834D1DA
:1032A0000EE0FDF7BDFE00283DD115E02D48006879
:1032B000C00629D5324828E0FDF7C2FE002824D1F7
:1032C00000253BE027480068C0062BD52C482AE0A3
:1032D000FDF7B6FE002826D100252FE027486268BA
:1032E0005643B0422AD31103884227D8010E56080C
:1032F0000002002380195941FCF7FAFE22494118C7
:10330000224A91421AD216E01C48400061684A08DD
:103310001018FCF74AFF1B4901400FD00007400F6F
:10332000084308E0154861684A081018FCF73DFF9B
:1033300080B2102802D32168C86000250020606692
:10334000A066284601B0F0BDF369FFEF00480040D9
:10335000FF4B0040004C004000500040003801404E
:103360000044004000100240B03600080100000098
:103370000400000002000000080000000024F40027
:1033800000093D00F0FF000000FDFFFF00FD0F0001
:10339000F0B587B016460F4605460468E169394026
:1033A000C91B4A424A410020B24224D106930495E7
:1033B0002A4674320C9D002D1FD0691C43D1E1694F
:1033C0003940C91B4A424A41B24214D1E1693940ED
:1033D000C91B4A424A41B2420DD1E1693940C91B79
:1033E0004A424A41B24206D1E1693940C91B4A42C8
:1033F0004A41B242E3D007B0F0BD0392FDF778FB3B
:10340000049CEFF31081012080F310880D225201FB
:1034100023681D6895431D6081F31088EFF31081C8
:1034200080F31088226893688343936081F3108847
:103430002020A0677C3403990020087020202060A1
:10344000032007B0F0BD0392029001200190C0025A
:103450000590049C06E0C0693840C01B41424141D0
:10346000B1422DD1FDF744FB0699401AA842C8D8B5
:10347000206801684907EED5C169059A1142EAD072
:1034800005990162EFF31080019D85F310880D21ED
:103490004901226813688B43136080F31088EFF3AF
:1034A000108085F3108821688A68AA438A6080F3B7
:1034B00010882020A067E06703990C460C34BBE716
:1034C000029807B0F0BD000080B55E48FEF74EFEE2
:1034D00080BDC04680B586B00020019001A98870EB
:1034E000088003900290059004900A480090574885
:1034F0000122FEF7F5FA002801D0FDF7F1F8534854
:1035000069460122FEF742FA002801D0FDF7E8F8EB
:1035100006B080BD0101010082B0FDF7F7FAFFF7A8
:1035200089FCFFF7C9FAFFF7A5FAFFF707FCFFF7D9
:103530000BFBFFF779FBFFF7A9FBFFF7D9FBFFF7C1
:103540001FFB3E483E4901242246FFF723F93D4830
:103550003D492246FFF71EF93C48002529462A46E8
:10356000FEF777F8FFF7B6FF404C3E4F3A4E019515
:1035700003E07D208000FDF7B7F936480078002889
:1035800026D032782F483549314BFFF7E7F93078AC
:10359000002818D0284631490D543178421C8A42FF
:1035A00011D22E49091800224A703378841C9C429B
:1035B00009D28A703378C41C9C4204D2CA70001DA0
:1035C00031788842E7D30020307022490870274CB8
:1035D00023480078002828D03A78184822491C4B04
:1035E000FFF7BCF93878002819D0002001461E4AA0
:1035F00050543A784B1C934211D21B4A5218002364
:1036000053703C788D1CA54209D293703C78CD1C38
:10361000A54204D2D370091D3A789142E7D3002025
:1036200038700F490870019D104C20780028A0D0F8
:10363000FCF772FE002020709BE7C0462C020020A1
:103640009A0000209403002009010020B00200200D
:10365000FFFF0000990000209800002034000020A7
:103660000801002007010020A30000201C0000200A
:1036700002E008C8121F08C1002AFAD1704770473B
:10368000002001E001C1121F002AFBD17047000099
:103690000000000000000102030406070809000002
:1036A000000001020304030406080C101820300077
:1036B00000000000040000000200000008000000FC
:1036C00041542B5149435347503D312C312C224317
:1036D0004D4E4554222C22222C22222C310D0A0040
:1036E00041542B435245473F0D0A0041542B434759
:1036F0005245473F0D0A0041542B4350494E3F0D60
:103700000A005443502F4950E58D8FE8AEAEE5884E
:103710009DE5A78BE58C96E5A4B1E8B4A5EFBC8147
:103720000D0A002B435245473A20302C31002B43E1
:10373000475245473A20302C31002B435245473AF7
:1037400020302C35002B43475245473A20302C354A
:10375000002B51494F50454E3A002B4350494E3AA9
:1037600020524541445900008837000800000020DD
:103770001000000070360008983700081000002084
:10378000100800008036000801000000040000005E
:083790005AA500000000200012
:04000005080000C12E
:00000001FF
